:1008820020696E7465727275707420300020696E12
:1008920074657272757074203100776169742069B1
:1008A2006E74657272757074007363616E6E696ED8
:0308B200672000BC
:04090A007F647E0088
:10090E00E4FDFCC3ED9FEC9E5015E4FBFA0BBB001F
:0F091E00010ABA04F8BBFBF50DBD00010C80E423
:01092D0022A7
:0A099800E4F580F590F5A0F5B0221B
:0F096000D287C2A7D2A6C2A5D2A530870280F740
:01096F002265
:0E0970001209608F80D2A5C2A7C2A6C2A5221E
:0E097E001209608F80D2A5D2A7C2A6C2A52200
:10092E007F381209707F0F1209707F061209707FCF
:09093E00011209707F1C0209700E
:1008E5008B0E8A0F8910AB0EAA0FA910120947604B
:1008F500130510E5107002050F14F9120947FF12D0
:05090500097E80E222E2
:03000300020800F0
:10080000C0E0C083C082C0D075D000C001C002C0AB
:1008100003C004C005C006C0077F011209707BFF3A
:100820007A0879821208E512090AD007D006D005A5
:10083000D004D003D002D001D0D0D082D083D0E079
:010840003285
:030013000208419F
:10084100C0E0C083C082C0D075D000C001C002C06A
:1008510003C004C005C006C0077F011209707BFFF9
:100861007A08798F1208E512090AD007D006D00557
:10087100D004D003D002D001D0D0D082D083D0E038
:010881003244
:1008B50012099812092ED2AFD2A8D2AA7F01120925
:1008C500707BFF7A08799C1208E57FC01209707B5E
:1008D500FF7A0879AB1208E512090A12000080DCDC
:0300000002098C66
:0C098C00787FE4F6D8FD7581100208B5F4
:10094700BB010689828A83E0225002E722BBFE02AE
:09095700E32289828A83E49322E1
:00000001FF
